:020000040800F2
:100000000040022029730008D92B0008DB2B0008D0
:1000100000000000000000000000000000000000E0
:10002000000000000000000000000000E32B0008BA
:100030000000000000000000E52B0008E72B00088E
:1000400079730008797300087973000879730008E0
:1000500079730008797300087973000879730008D0
:10006000012C00087973000879730008797300087F
:10007000797300087973000879730008F12B000880
:1000800079730008797300087973000879730008A0
:100090007973000879730008797300087973000890
:1000A0007973000879730008797300087973000880
:0C00B00079730008797300087973000868
:1000BC0002B4714649084900095649008E4402BCF5
:1000CC007047C04602B4714649084900095C4900B2
:1000DC008E4402BC7047C04603B4714649084000C8
:1000EC004900095E49008E4403BC70470022430856
:1000FC008B4274D303098B425FD3030A8B4244D3E4
:10010C00030B8B4228D3030C8B420DD3FF22090225
:10011C0012BA030C8B4202D31212090265D0030BE4
:10012C008B4219D300E0090AC30B8B4201D3CB03DA
:10013C00C01A5241830B8B4201D38B03C01A52411C
:10014C00430B8B4201D34B03C01A5241030B8B421E
:10015C0001D30B03C01A5241C30A8B4201D3CB0209
:10016C00C01A5241830A8B4201D38B02C01A5241EE
:10017C00430A8B4201D34B02C01A5241030A8B42F1
:10018C0001D30B02C01A5241CDD2C3098B4201D309
:10019C00CB01C01A524183098B4201D38B01C01A87
:1001AC00524143098B4201D34B01C01A52410309FE
:1001BC008B4201D30B01C01A5241C3088B4201D3AD
:1001CC00CB00C01A524183088B4201D38B00C01A5A
:1001DC00524143088B4201D34B00C01A5241411A81
:1001EC0000D20146524110467047FFE701B500208E
:1001FC0000F006F802BDC0460029F7D076E770473C
:10020C007047C0460323CAB2F0B50340002A35D06C
:10021C000324002B2DD1FF230B401D02ED182B04C2
:10022C00ED182C000168264E4C408B198B43A119FC
:10023C00A143244E0B43334211D14168204F0C0093
:10024C00CB196C408B43E119A1430B43043033426F
:10025C00F3D00378002B05D09A4204D001300378F8
:10026C00002BF9D10020F0BD9342FCD0013020428C
:10027C00D1D00378002BF7D10020F4E7002B08D065
:10028C00032202E00130104203D00378002BF9D195
:10029C00E9E702680A4B0B49D31893430B4206D18A
:1002AC004268074B0430D31893430B42F8D00378C1
:1002BC00002BD8D043780130002BFBD1D3E7C046BC
:1002CC00FFFEFEFE8080808010B583070AD00300FD
:1002DC00032102E001330B4205D01A78002AF9D130
:1002EC00181A10BD030019680C4A0D4C8A188A4361
:1002FC0022420FD15968094A04338A188A43224290
:10030C0008D15968054A04338A188A432242F1D02D
:10031C0000E001331A78002AFBD1E1E7FFFEFEFE74
:10032C008080808070B50478002C18D00E78050081
:10033C00002E0FD00A00330003E053780132002B5B
:10034C0003D09C42F9D1281A70BD6C780135002C71
:10035C00F0D1F8E76C780135002CFBD1F3E70020E5
:10036C00F2E7C046F0B557464E464546DE4688464F
:10037C00E0B50C0092461E00082183B0019046485F
:10038C0023001D780134425D1142F9D12D2D5ED030
:10039C00002293462B2D33D0002E07D1302D62D066
:1003AC000A23052199463D4F0A360DE0102E53D0F5
:1003BC00012031004042FFF799FE07000120310077
:1003CC004042B146FFF718FF002200202B00303BC3
:1003DC00092B07D9113B192B03D92B00613B192B86
:1003EC0011D80A339E420EDD551C06D0B84221D8D6
:1003FC001ED04A4650430122181825780134E5E7EF
:10040C0025789C1CC8E7531C17D05B46002B00D0EA
:10041C0040425346002B04D0002A15D15346424685
:10042C001A6003B0F0BCBB46B246A946A046F0BD6C
:10043C008B42DEDD01225242DFE7222301991000BC
:10044C000B605346002BECD0631E9846E6E72578EC
:10045C009C1C01239B469FE7302D0FD010230F21AE
:10046C0099460F4FB0E7202223789343582B0AD09C
:10047C0008230721994608260A4FA5E7202223784E
:10048C009343582BEAD1102365780F2199461026F7
:10049C00034F023498E7C04695730008999999194F
:1004AC00FFFFFF0FFFFFFF1F10B5FFF75BFF10BD36
:1004BC0010B504001300034A10680A002100FFF76E
:1004CC0051FF10BD0000002010B504001300034ABA
:1004DC0010680A002100FFF745FF10BD0000002046
:1004EC0070B50D4B0D4D5E1BB610AB4205D0002404
:1004FC0008CD01349847A642FAD806F039FF084BCC
:10050C00084D5E1BB610AB4205D0002408CD01345B
:10051C009847A642FAD870BD000000000000000009
:10052C000000000000000000F0B50500830749D072
:10053C00541E002A45D003000326CAB202E001353E
:10054C00013C3ED301332A703342F8D1032C30D90D
:10055C00FF220A401502AD182A04AD180F2C34D90D
:10056C002700103F3F093E01B4461E001A0010360A
:10057C006644156055609560D56010329642F8D18E
:10058C0001373F01DB190F270C22274022403C008A
:10059C00002A0ED03E1FB608B400A4461A001C1D3B
:1005AC00644420C2A242FCD103240136B6009B193C
:1005BC003C40002C05D0C9B21C19197001339C4267
:1005CC00FBD1F0BD03001400C0E72700E2E7C046F2
:1005DC00014B18687047C0460000002070B5FF241E
:1005EC000C40C9B20025002902D108E01D00581C9E
:1005FC002100FFF707FE031EF8D1280070BD210073
:10060C00FFF700FE0500F8E7F0B557464E464546A5
:10061C00DE46E0B582460F0090461E00994683B038
:10062C00242B43D8012B41D00B0008204A4D1A0033
:10063C0014780133295D0842F9D11D002D2C00D10D
:10064C0076E02B2C3ED0454B9B4600230193002E8D
:10065C0053D1302C00D173E00A2399460A3649460F
:10066C005846FFF7C9FD2B008C463D0002002700C1
:10067C0000214C460020E146AC463D00303D092DA2
:10068C0007D9113D192D03D93D00613D192D20D8F5
:10069C000A35AE421DDD4F1C05D082422AD327D02D
:1006AC000121604328181F780133E6E7FFF790FF1C
:1006BC0016230360002003B0F0BCBB46B246A9462B
:1006CC00A046F0BD1C78254B951C9B46002301933E
:1006DC00BDE767464A1C21D0019A002A00D040424F
:1006EC004246002AE7D0002933D143461F60E2E797
:1006FC00A945D5DA01214942D5E7102EAFD11023F7
:10070C009946302CABD120222B789343582BA6D171
:10071C0010236C78994610260235A0E72222514608
:10072C000A6042465846002AC5D058465F1EDCE790
:10073C001C7880231B069B460123951C019386E79E
:10074C0020222B789343582BE2D008230826994675
:10075C0085E78346E9E7C04695730008FFFFFF7FF6
:10076C0010B5FFF751FF10BD10B504001300034A7C
:10077C0010680A002100FFF747FF10BD00000020A1
:10078C0010B504001300034A10680A002100FFF79B
:10079C003BFF10BD0000002030B5002A26D003001E
:1007AC000B439B0724D1032A22D9164D0BE0043AA4
:1007BC00002A1BD0144C1C199C432C4216D104301B
:1007CC000431032A14D903680C68A342EFD00478CF
:1007DC000D78A54213D1012306E0C45CCD5CAC427C
:1007EC000DD101339A4201D0002CF6D1002030BD3E
:1007FC0004780D78AC4202D1012AECD1F6E7601BEB
:10080C00F5E7C04680808080FFFEFEFE024670B594
:10081C000A4392072AD11E4DEE0104C808C9541B85
:10082C009443344017D0D0B2D9B2401A21060143B8
:10083C0010D190B299B2401A210401430AD110028E
:10084C001902000A090A401A2102014302D1100EB2
:10085C00190E401A70BD9A42DFD010BA19BA8842EC
:10086C0001D9012070BD0020C04370BD02780B7807
:10087C0001300131002A09D09A4207D102780B7855
:10088C0001300131002A01D09A42EFD0D01A70BD4C
:10089C000101010108B410B504009DB0002A32DB3F
:1008AC00822368469B008382002302911B9306914E
:1008BC00002A13D0013A013BC382049220AB079269
:1008CC0020001F9A02A9019300F09EF9431C01DA43
:1008DC008B2323600022029B1A700FE001235B42E2
:1008EC00C382049220AB079220001F9A02A90193A5
:1008FC0000F08AF9431C01DA8B2323601DB010BC75
:10090C0008BC01B018478B23036001204042F5E777
:10091C000CB410B51E4B9CB01C68002933DB822331
:10092C006A469B009382002302901B930690002939
:10093C0013D00139013BD38204911FAB07912000E6
:10094C001E9A02A9019300F05FF9431C01DA8B2374
:10095C0023600022029B1A7010E001236A465B425E
:10096C00D38204911FAB079120001E9A02A9019318
:10097C0000F04AF9431C01DA8B2323601CB010BC35
:10098C0008BC02B018478B23012023604042F5E7D6
:10099C0000000020F0B505000F2A31D903273E00D6
:1009AC000D430C0003002E402F4234D11500103D96
:1009BC002D09AC462F013F1865685D60A5689D60E8
:1009CC00E568DD60256810341D601D001033BD42E4
:1009DC00F2D165460F230C2401352D014919134022
:1009EC00451914421AD0043B9B0801339B008C59C7
:1009FC00AC5104369E42FAD10323AD1989191A4021
:100A0C00561E002A06D00023CC5C1A00EC5401338D
:100A1C009642F9D1F0BD0500561EF4E71A00EFE737
:100A2C00F0B546464F46D646C0B58E6880460C009B
:100A3C0091461D0008689E4239D80C228B5E90228C
:100A4C00D200134210D135002A00494600F008FBB1
:100A5C000020A3689B1BA36023685B192360E0BC88
:100A6C00BA46B146A846F0BD0969421A9246606979
:100A7C0042001218D70FBF18681C7F1050443A0060
:100A8C00B84201D9070002005B0512D5110040469F
:100A9C0000F002FA061E1FD052462169FFF77AFFBA
:100AAC00A389124A134080221343A38106E01E003F
:100ABC00CAE7404600F02CFB061E09D03000534616
:100ACC0050446761FF1A266120602E00A760BBE7C7
:100ADC004046216900F068FA0C234246136040221C
:100AEC000120A38940421343A381B8E77FFBFFFF9A
:100AFC00F0B545465746DE464E46E0B5136883B022
:100B0C00984693680D0092460190002B6FD00023FD
:100B1C0000249B460A688B6849E00C216B5E90218F
:100B2C00C9000B422BD068692969561A4200121869
:100B3C00D00F8218701C521000199146904201D9A6
:100B4C00814602008020C00003423AD01100019877
:100B5C0000F0A2F9071E3DD032002969FFF71AFFF9
:100B6C00AB89284A134080221343AB814B46B819FA
:100B7C009E1B2F61AE602700260028606B6132003F
:100B8C00594600F06DFA51465046AB682A688968A0
:100B9C00DB1B9219091BAB602A60816027D0414690
:100BAC0009688B4641464C6808218C46E0441F007E
:100BBC001000002CF3D01E009C42AED22700260061
:100BCC00DDE7019800F0A4FA071ECFD1296901983E
:100BDC0000F0EAF90C23019A012013604022AB8942
:100BEC0040421343AB8152460023936000E0002047
:100BFC0000235246536003B0F0BCBB46B246A94634
:100C0C00A046F0BD7FFBFFFFF0B5DE4657464E46D3
:100C1C004546E0B51C008B898246894693469DB0BB
:100C2C001B0603D50B69002B00D1F5E0002304ADA6
:100C3C006B6120336B761033AB765B461B787F4F42
:100C4C000394002B78D05C4604E063780134002BCD
:100C5C0000D17EE0252BF8D15B46E61A5C4500D02E
:100C6C007BE02378002B67D0012300225B420492A7
:100C7C000593002200230692079300234332AB54C2
:100C8C00AB6501339B46013406E05A46C01B8240DB
:100C9C001C0029680A432A6005223800217800F0DC
:100CAC004BFC631C1E000028EFD12A68D10602D52C
:100CBC00432120306854110702D543212B2068545E
:100CCC0021782A2955D1039B191D1B680391002BF0
:100CDC0000DA7CE0EB6061782E2960D0584C03225E
:100CEC00200000F029FC002806D04023001B834084
:100CFC002A68013613432B603178731C0622514845
:100D0C009B46297600F018FC002866D04E4B002B31
:100D1C0056D003AA009229004A4650464B4B00E09D
:100D2C0000BF80464346013306D06B6943446B6178
:100D3C005B461B78002B86D14B469B895B0600D506
:100D4C0079E068691DB0F0BCBB46B246A946A04626
:100D5C00F0BD5B46E61A5C45EED033005A46494678
:100D6C005046FFF75DFE0130E6D06B699B196B6155
:100D7C0077E70800303826000928ADD8EA68140057
:100D8C0000E00133A200121919785200141808005F
:100D9C0030380928F5D91E00EC602E299ED17178C7
:100DAC002A2924D1039BB01C1A1D1B6803926B606B
:100DBC00002B02DA01235B426B60B17806008DE7F1
:100DCC000722039B0733934308330393ADE75B423E
:100DDC00EB6002231A432A607DE703AA00922900E4
:100DEC004A465046194B00F073FA80469AE70800C1
:100DFC000023303801366B60092800D96EE71A00E1
:100E0C0093009B1871785B001A1808003038013673
:100E1C000928F5D96A6061E7402100F03DF84B469E
:100E2C0018601861002803D040234A465361FDE640
:100E3C000C23524613600120404283E72C790008B2
:100E4C003479000838790008000000002D0A0008E9
:100E5C0070B5104E050033680C00002B15D0210026
:100E6C00280000F0A3FB431C0CD00323C41C9C43A0
:100E7C00A04205D0211A280000F098FB013001D0C7
:100E8C00200070BD01246442FAE7002100F08EFBC3
:100E9C003060E4E768020020F8B50323CE464746ED
:100EAC00CD1C9D430835060080B50C2D1ED20C259B
:100EBC00A9421DD8300000F03BFB3A4F7A68002A5B
:100ECC001AD0140004E063682200002B14D01C001C
:100EDC0023685B1BF7D40B2B27D96119256094422F
:100EEC005BD051600B6063684B600DE0002DDFDA66
:100EFC000C230020336014E029003000FFF7A8FF1A
:100F0C000400431C19D00560300000F013FB2000D6
:100F1C0007220B30231D9043C21A984201D01B1A92
:100F2C00A350C0BCB946B046F8BD6368944202D029
:100F3C005360E9E743467B60E6E77B689846002B05
:100F4C0024D0444663689846002BFAD123680021CC
:100F5C0099463000A14400F029FB814516D1236845
:100F6C003000ED1A2900FFF773FF01300ED0236813
:100F7C007A685B1923605368002B02D1DAE71A00F8
:100F8C005B689C42FBD100235360BDE70C2330000F
:100F9C00336000F0CFFA0020C3E779600B60636820
:100FAC004B60B1E76802002070B50500002915D030
:100FBC000C1F2368002B23DB280000F0B9FA274A0A
:100FCC001368002B05D0A3420BD92168601883420B
:100FDC002CD028006360146000F0ACFA70BDA34202
:100FEC0010D81A005B68002BF9D1106811188C42CC
:100FFC0018D02CD363605460280000F09BFAEDE706
:10100C00E418D9E711685018A04214D01FD82168F1
:10101C0060188342EED118685B68411821606360E8
:10102C005460E9E723681B181360E5E718685B68F0
:10103C0041182160CDE720680918501811608342CF
:10104C00DAD118685B68411811605360D4E70C233F
:10105C0028002B6000F06EFAC0E7C0466C0200203E
:10106C00F0B588420AD98B18984207D2531E002A31
:10107C0003D0CA5CC254013BFBD2F0BD05000F2A61
:10108C000AD8561E002AF8D00023CC5C1A00EC5467
:10109C0001339642F9D1F0E703273E000D430C00D3
:1010AC0003002E402F422DD11500103D2D09AC46CA
:1010BC002F013F1825681D6065685D60A5689D60FF
:1010CC00E5681034DD601D001033BD42F2D1654679
:1010DC000F230C2401352D014919134045191442D5
:1010EC0013D0043B9B0801339B008C59AC51043644
:1010FC009E42FAD103231A40AD198919561E002AB3
:10110C00C2D1BAE70500561EBEE71A00B9E7C046C1
:10111C00F0B5C64607000E00140000B500292DD00E
:10112C00002A27D000F054FA8046844203D83500B8
:10113C004308A34210D321003800FFF7ADFE051E73
:10114C000AD0220044450BD831002800FFF722FCBE
:10115C0031003800FFF728FF280080BCB846F0BDEE
:10116C00310042462800FFF715FC31003800FFF72C
:10117C001BFFF1E7FFF718FF0025EDE71100FFF764
:10118C008BFE0500E8E7C046F8B557464E46454687
:10119C00DE46E0B51F000A9B924698460A698B68AA
:1011AC0006000C009A4200DA1A0053461A604323D8
:1011BC00E35C002B02D0514601320A602268910692
:1011CC0061D55346524606201B68023313602268D1
:1011DC001100104208D10020814619308346E16885
:1011EC00A344994247DC11004323E35C5A1E93410C
:1011FC0089060AD53020E1184331087045215A1C64
:10120C00615CA218433202331170220039003000A5
:10121C004332C04701301DD0534606251B68E16898
:10122C009C462368A26820692B40042B31D0824253
:10123C0039DD00239946121A914400251A3402E034
:10124C0001354D452FDA0123220039003000C0470B
:10125C000130F5D101204042F0BCBB46B246A94654
:10126C00A046F8BD01239C465346E5681B68E14443
:10127C00ED1A4D4524DD01235A4639003000C04794
:10128C000130EFD1E6E7062111420ED05A1E9341F0
:10129C00BBE76346C91ACB43DB170B409946824226
:1012AC00C9DC0029C9DC0020D6E700205346814662
:1012BC00193083461B68E168A3449942DBDC92E752
:1012CC0043232168E35C5A1E9341890692D49CE720
:1012DC00F0B54E46994643239C4657464546DE4656
:1012EC008C446346E0B587B002930C00097E9046AF
:1012FC000700109A002914D00B00583BDBB2202BAE
:10130C0048D888489B00C3589F46136821681D1D08
:10131C00606915601B680E0602D4490600D5DCE036
:10132C0018600023029D23614B4621000093380076
:10133C00434605AAFFF728FF01301ED02A0041467C
:10134C0038002369C847013017D02368E068059E30
:10135C009B071BD5B04219DD19239A460025A244E0
:10136C0004E0E0680135831BAB420FDD01235246DC
:10137C0041463800C8470130F3D10120404207B044
:10138C00F0BCBB46B246A946A046F0BDB042F6DA68
:10139C003000F4E72500422301204235E154432379
:1013AC0000222061E254BFE713682168181D106009
:1013BC000D0602D44D0600D594E01A681600636839
:1013CC00002A00DA92E0584A93460A2203924BE034
:1013DC001368206840CB050601D440067FD4136007
:1013EC00514B9B466F2900D191E00A23039337E0C0
:1013FC0013682500191D11601A684223012042351B
:10140C00E254CCE71368191D11601D6800212800F7
:10141C00626800F091F8002800D181E0401B606008
:10142C00BDE7202321680B432360452178206054BD
:10143C003E498B46116840C9180603D4580601D59D
:10144C003604360C1160DA0702D5202213432360D0
:10145C00002E03D12022236893432360102303938F
:10146C0043230022E2546368A360002B18DB0421A1
:10147C0022688A432260002E12D1029D002B49D192
:10148C00039B082B1ED0029B5B1B23614CE745235F
:10149C005821E154244923688B46CBE72368C4E7E1
:1014AC00039B9A46029D30005146FEF7A5FE5B4613
:1014BC005B5C013D2B70330006005345F3D2039B5C
:1014CC00082BE0D12368DB07DDD5626823699A42DB
:1014DC00D9DC3023013D2B70D5E7188021E7360489
:1014EC00360C7CE700269E5F320068E743222D20F5
:1014FC00A054A360002B02DB0423994321600A2330
:10150C009A46094B76429B460A230393CAE7082363
:10151C000393A5E75B4625001B7842352B70AFE79C
:10152C0060683CE79874000840790008547900081A
:10153C007047C0467047C04670B5CCB283070DD01B
:10154C00531E002A0FD0032504E00130284206D098
:10155C00013B08D30278A242F7D170BD1300032BD4
:10156C0003D8002B14D10020F7E7FF220A40150204
:10157C00AD182A040B4EAD1803E0043B0430032BCA
:10158C00EFD9026808496A40511891433142F4D0AE
:10159C00C31802E001309842E5D00278A242F9D19A
:1015AC00DBE7C04680808080FFFEFEFE002370B526
:1015BC00064C05000800236000F014F8431C00D012
:1015CC0070BD2368002BFBD02B60F9E77002002064
:1015DC000B1F1B68181F002B00DB70470B58C01823
:1015EC00FBE7C046044A03001068002802D0C31869
:1015FC00136070470148FAE77402002020120020A3
:10160C00F0B50027D24CA54400F068FC00F0EEFACF
:10161C002DA800F039FE00F005FD00F073FDCD495A
:10162C002AAC080000F06AFB00F0CEFD01F058F97E
:10163C0000F00CFEC74B16971B971597109313933E
:10164C001822002132A8FEF76FFF00F0CBFA1190A0
:10165C0000F026FB01F052F900F0DCFB21AD00217B
:10166C001790280000F034FB2B8824AD28000121B2
:10167C001D9300F02DFB2B8827AD022128001C9315
:10168C0000F026FB119B179823602B881493A380E2
:10169C0000F0F6FBA07100F001FC0023984202D090
:1016AC0001F02EF9030001221A40E27121AA127AEC
:1016BC001892227224AA127A1992627227AA127AAA
:1016CC001A92A272002B01D11F00169321002DA893
:1016DC0000F036FE602138A801F03AF9002800D15C
:1016EC0073E132AD290038A800F024FF12901E904F
:1016FC00002800D046E1984801F086F921002DA879
:10170C0000F01EFEA3790600012800D0EBE100F0EA
:10171C006DFA169B002B00D19BE0119B1B9A9B1A18
:10172C00312B00D895E04221159B20A801331E9344
:10173C0010ABC91800F00EFB742210AB9B18187874
:10174C00012102280BD0002110AB08329B181B780A
:10175C008B4204D1A16809024B425941C9B2A2790A
:10176C00FB01002A01D101321343E279002A05D191
:10177C0002252DAA527A52422A4013432DAA127ADC
:10178C00002A04D0A27A002A01D104321343A268A1
:10179C00120202D00822002808D0012807D1227A90
:1017AC00002A02D0627A002A01D1102213432DA8FC
:1017BC00827A002A06D022683098121AC82A01D9D7
:1017CC00202213432DA8C27A002A08D0319822680F
:1017DC00121AFA204000824201D9402213433000F1
:1017EC00012E07D0022E05D01A00551EAA41032047
:1017FC00524210400893179B06910593422310A95F
:10180C005B18C02107901B88544A049320AB1B889B
:10181C0049000393149B50A802931C9B01931D9B9E
:10182C000093159BFFF774F80500010050A800F019
:10183C0077FEC0210300490050A8494A491B4019B2
:10184C00FFF766F850A801F0DFF8119B1B931E9B65
:10185C001593129B002B78D0422110ABC91820A8ED
:10186C0000F078FA300000F0C7FDA36812901B025C
:10187C001A0A002B00D046E12DAB1B7A3949119185
:10188C00002B01D0384B1193364D002E1CD1A3796F
:10189C00364D002B18D07C2110AB5B181B78002B1D
:1018AC0003D0A37A324D002B0ED0742110AB5B18F1
:1018BC001B78012B00D038E1237A2E4D002B03D05E
:1018CC00637A002B00D05CE100F09AF92A4E0028D4
:1018DC0000D02A4E7D2210AB9B181B7821002DA81E
:1018EC001E9300F010FD742210AB9B181F901878FB
:1018FC0000F092FD422310A95B18C0211B88204ADE
:10190C000F9320AB1B8849000E93199B0D931C9BC6
:10191C000C93189B0B931D9B0A93179B0993E379CC
:10192C00059008931A9B50A80793149B0296069354
:10193C001F9B019504931E9B0393119B0093129B79
:10194C00FEF7E6FF50A801F05FF800F0B3FA77E677
:10195C003CFDFFFFDC050000B075000815770008A2
:10196C003C7700081C750008277500083B750008BB
:10197C00407500084E750008AD750008A975000883
:10198C00447700082878013808281ED8FEF7A4FBF5
:10199C00B6FE9F006800110011000900090022002A
:1019AC00A4002DA8119900F07DFC784801F02CF8CA
:1019BC000BE032AD6B8811991393AB882DA8109363
:1019CC0000F06AFC2B78042B02D00023129395E6CE
:1019DC006F48EBE74022422110AB9A186D4B32AEA8
:1019EC00138010AA52181380B78A2DAD28001199B4
:1019FC0000F058FCFB0709D400272DA800F07EFC52
:101A0C00644B109313931E9B1693DEE7422310AA8C
:101A1C009B181A00300020A900F00CFF002811D0F0
:101A2C002800119900F038FCBF07E5D56F7A002F1C
:101A3C000AD1F36832691343E2D128002AA900F0D5
:101A4C0037FCDDE71E9FD8E7402210AB9B181B88A4
:101A5C000232139310AB9B181B8800271093D2E70C
:101A6C007E2210AB9B181B784B48002B9ED0139AF0
:101A7C00484B9A4202D1109A9A4201D0474895E7B6
:101A8C00309B119A4648D31AC82B19D82AAB9A798D
:101A9C004448002A14D07C2110AA52181278002A2B
:101AAC0002D19B681B0204D02DAB1B783E48022B45
:101ABC0006D12AA92DA800F0FBFB002805D03B4835
:101ACC0000F0A2FF109B13937FE73948F8E72DA88D
:101ADC0000F014FC374869E7C02150A8490000F019
:101AEC00E7FE50A862E7022807D11099139800F07E
:101AFC0005F9012000F060F90BE6002B00D106E699
:101B0C0024490800F3E7237A2B491191002B00D1CB
:101B1C00BAE6637A002B00D1B6E6A37A2749119175
:101B2C00002B00D0B0E6264BADE6002A03D0254DA5
:101B3C00022B00D0C8E6E379234D002B00D1C3E67D
:101B4C002DAB9A7A214D002A00D1BDE6226830993E
:101B5C001F4D511AC82900D9B6E6D97A1D4D002956
:101B6C0000D1B1E631991C4D521AFA2149008A4232
:101B7C0000D9A9E65B7A194D002B00D1A4E6184DCB
:101B8C00A2E6104D002A00D09EE6D4E7D1750008DD
:101B9C00D8750008DC050000E1750008FC7500082C
:101BAC001F76000842760008637600088E760008DF
:101BBC00C1760008E17600082C7500082175000834
:101BCC0034750008377500086175000865750008E4
:101BDC0070750008807500088D7500085875000830
:101BEC009F75000810B501F039FA10BD10B5002230
:101BFC000121024802F016F810BDC0460004005046
:101C0C0010B50121034802F007F80138434258414E
:101C1C00C0B210BD000400508023026870B5DB0513
:101C2C009A4215D1057F022D13D0042D14D0012D0D
:101C3C000ED100210E0002F051F90400A020290061
:101C4C00C00501F0E9FF124AB300002807D1D450B7
:101C5C0070BD04210126EEE708210226EBE7D358DC
:101C6C000C4AE31A99180C4A0C240C4D914209D8D1
:101C7C0074439BB22B5301F0F1F901232C196060D2
:101C8C002372E5E7002374432D192B72E0E7C0465D
:101C9C007C020020AEFCFFFF14050000880200202F
:101CAC0070B501F0DBF90C250022084C2B005343D6
:101CBC00E318197A002905D05968411A642901D909
:101CCC00002119720132032AF0D170BD8802002064
:101CDC0070B50C250E002A0000210400FEF724FC30
:101CEC00022E07D872B623007543034A521923CA31
:101CFC0023C362B6200070BD88020020FA2210B502
:101D0C00031CD200904200D9131CFA249AB2A400EE
:101D1C002000A24200D2231C0A4A9CB21380FA2251
:101D2C000B1CD200914200D9131C9AB2824201D2F0
:101D3C00054B1B8805499AB20B80054B1B685C63ED
:101D4C009A6310BD520000208278000850000020D9
:101D5C0020030020002802D0044B1B88038000299C
:101D6C0002D0034B1B880B807047C04652000020EA
:101D7C00500000200B4B1878002812D00A4B0B494E
:101D8C001B6809885A6A0A4B1888031C884200D2BF
:101D9C000B1C9BB2C83300209A4202D9054B9342CC
:101DAC00404170477902002020030020520000209F
:101DBC0050000020574D000010B5002803D1FFF74C
:101DCC0015FF012014E0A0200121C00501F024FF23
:101DDC000024012807D1A0200221C00501F01CFF1E
:101DEC00441E63425C41094B1B78002B01D100203F
:101DFC0010BDFFF7BFFF0028F9D0002CF7D001224F
:101E0C000348110001F00EFFDBE7C0467902002009
:101E1C000004005070B5154C200003F019F8002890
:101E2C0001D0002070BD0A21200002F0F9FD00282D
:101E3C00F7D1200002F058FE0500200003F072F8E4
:101E4C000B480C4B68430C49C018FEF74FF97A232A
:101E5C005843B0230B305B03984204D21621FEF793
:101E6C0045F980B2DEE70548DCE7C046BC0200203D
:101E7C00E40C0000FF070000FF0F0000FFFF000054
:101E8C00044B054AC31800209BB29A424041C0B291
:101E9C007047C046B0EBFFFFE40C000010B5022108
:101EAC00034801F0B9FE43425841C0B210BDC046D0
:101EBC0000040050044B10B51B78002B02D00348D3
:101ECC0003F034F910BDC04678020020AC020020AB
:101EDC0010B572B6FFF78AFEFEE70000F0B5AFB0A2
:101EEC0001F09CF8282200210DA8FEF71DFB102202
:101EFC00002102A8FEF718FB4C2200211BA8FEF7BC
:101F0C0013FB1822002106A8FEF70EFB22230C93CC
:101F1C00DE330F93C03B11938023DB031393082311
:101F2C00179380239B0280271893802302269B04FF
:101F3C00BF050CA81496159619931A9701F0F6F88C
:101F4C00002801D0FFF7C4FF07230490059031004F
:101F5C0002A80293039601F081FB0028F2D18023A2
:101F6C002C905B041BA81B9301F022FC051EE9D1ED
:101F7C008022284C5202E36B1343E363E36B079715
:101F8C0013400193019B244B0127099322230690B4
:101F9C0008900A9306A81E330B9301F05BFD2900F1
:101FAC0014221BA8FEF7C0FA8022636B52053B4338
:101FBC006363636B19483B400293029B636B33432F
:101FCC006363636B33400693069BE36B1343E363DA
:101FDC00E36B13400C930C9B8023114ADB0051687C
:101FEC000B43536039002A0001F01CFE1BA90B485F
:101FFC001B971C971D951E9501F056FD07481BA9B4
:10200C001B961C951D9501F04FFDFFF7EFFD2FB0B2
:10201C00F0BDC046001002407FBB00000004005021
:10202C000070004030B589B01022002104A8FEF7E2
:10203C007BFA0C22002101A8FEF776FA242200215B
:10204C002B48FEF771FA0C2200212A48FEF76CFA95
:10205C008023294CDB052360284B29491868FEF79F
:10206C0045F8012200230138606052422000A36031
:10207C00E2602361A36102F077F8002801D0FFF73A
:10208C0027FF01900290039001A9200002F072FB3F
:10209C00021EF4D10A23042504930690093B200068
:1020AC0004A90593079502F095F90028E7D12A00B9
:1020BC00200004A902F08EF90028E0D104A908221E
:1020CC00200002F087F9011ED9D1200002F0BCFAE1
:1020DC000028D4D12900200002F0B6FA0028CED175
:1020EC000821200002F0B0FA0028C8D109B030BD98
:1020FC00880200207C0200206C03002028010020B4
:10210C0040420F0030B58BB01C22002103A8FEF713
:10211C000BFA0C2200216846FEF706FA234C244BDE
:10212C0024492360244B1868FDF7E0FF0023013895
:10213C00224A6060A360236120008033E260A361C7
:10214C0001F0E8FF002801D0FFF7C2FE00900190DB
:10215C0002906946200002F00DFB021EF4D16023B0
:10216C000393174B0590079003A92000049302F0EA
:10217C0067F80028E8D10422200003A902F060F8D7
:10218C00051EE1D1200000F0B1FC2900200002F076
:10219C0057FA0028D8D10421200002F051FA002867
:1021AC00D2D10122074B1A700BB030BD2003002096
:1021BC000004004040420F00280100201F4E000088
:1021CC00DC050000790200201FB50C22002101A8BB
:1021DC00FEF7AAF91A4C1B4B0422236080231B0622
:1021EC00636000236261033AE261A218D377220094
:1021FC002C32137007226263A263220020003C324F
:10220C00A360E36023612376A3766362A3622363F6
:10221C001370E36402F0F4FA002801D0FFF758FEC3
:10222C00094B0290039001A92000019302F060FC7D
:10223C000028F3D1200002F093FE0028EED11FBD40
:10224C00BC02002000240140100000100A480B4B77
:10225C0010B5036004234360094BC360FA235B0091
:10226C00836002F031FF002801D0FFF731FE01221C
:10227C00044B1A7010BDC046AC0200200030004068
:10228C00FF0F00007802002010B5002803D01422A4
:10229C000021FEF749F910BD002802D00123C160CE
:1022AC0083727047002802D001230161C37270470A
:1022BC00030030B500281ED0081E1CD0987A0028C8
:1022CC0019D08879002816D0C879002813D00D6849
:1022DC00DA68AA1AC82A05D81C7A002C04D01A78F5
:1022EC00022A04D0002006E08A68120204D10122DE
:1022FC001D615A72DA7230BD2000FCE7002801D053
:10230C00002343727047031E19D0081E17D0587A49
:10231C00002814D0987A002811D0D87A00280ED032
:10232C00C87900280BD00A68D9680020511AC8292E
:10233C0005D81B69D21AFA235B00934240417047BF
:10234C0070B504000D00002825D0002923D00023EF
:10235C00897A994209D0AA8825480133824204D946
:10236C00244B93429B415B425B0020782A68984245
:10237C0013D1637062602E7A002E06D06B7A002B1C
:10238C0003D0002901D001232372AB79002B11D18A
:10239C002000FFF7B3FF002070BD60789842E8D1B1
:1023AC0028266068012B00D03C36101AB042E2D3CC
:1023BC002370DFE72378012B08D12000FFF79EFF65
:1023CC000020864200D0687AC0B2E5E7227A002A63
:1023DC0009D0022BDCD129002000FFF794FF002844
:1023EC00D6D00220D8E7AB681B02F4D0D0E7C046A9
:1023FC0014050000A306000003000448012B03D0C1
:10240C000348022B00D003487047C046AD75000846
:10241C00E9770008EC77000803000448012B03D08F
:10242C000348022B00D003487047C046AD75000826
:10243C00E9770008F17700080023F7B50F001600C4
:10244C0001A90A2201930400FEF73EF8019B050046
:10245C00A34201D10020FEBD1A78202AFAD15C1CBF
:10246C002000163A01A9FEF72FF8019BA342F1D0E8
:10247C001B78002BEED1FA22054992006B1893427F
:10248C00E8D843189342E5D83D8030800120E2E73C
:10249C0018FCFFFFF7B5002504000F00160001958E
:1024AC00A84201D10020FEBD0378002BFAD02D2BC1
:1024BC00F8D0FEF78DF80A22056001A92000FEF77E
:1024CC0003F80500FEF784F80368222BEAD0019B81
:1024DC00A342E7D01B78002BE4D1BD42E2D8012007
:1024EC003560E0E770B50824030041180A4D0B482D
:1024FC008B4200D170BD1A7812025040220006B2F5
:10250C00400080B2002E00DA6840013AD2B2002AB4
:10251C00F5D10133ECE7C04621100000FFFF0000AD
:10252C0010B5002802D0FFF7DDFF10BD0048FCE716
:10253C00FFFF0000F0B506000F00ABB0002824D060
:10254C00081E22D00A2300240B70AB4B8C604B80EE
:10255C008B80CC600C618C8207223000A749FEF77F
:10256C001BF90500A04200D03CE10100282208A87C
:10257C00FDF7DAFF3000A2490295FDF7D3FE030008
:10258C00013B01905E2B02D900202BB0F0BD12ACA8
:10259C003100019A2000FEF7FDF9019B2C21E55436
:1025AC002000FEF71BF8051EEED0461C3000FDF790
:1025BC008BFE0428E8D11022300002A9FDF784FF1D
:1025CC00029B01909E42DFD01B78002BDCD1802235
:1025DC0052029042D8D22B702000291BFFF782FFA9
:1025EC006B469E888642CFD1002520002C0008AE79
:1025FC002C213060FDF706FE0135031E05D001309D
:10260C001C7004360A2DF3D1BEE7082DBCD17D49D0
:10261C000898FEF7FBF80028B6D17B490998FEF71D
:10262C00F5F8041EB0D101210A9803AA4942FFF71C
:10263C0031FF0028A8D00B9D0794002DA4D02B7837
:10264C00002BA1D0FDF7C4FF0A22046007A92800C3
:10265C00FEF796F80400FDF7BBFF0368222B00D1B0
:10266C0092E7079B9D4200D18EE71B78002B00D090
:10267C008AE7FA23FA229B00E318D200934200D98E
:10268C0082E7FA210C9804AA8900FFF703FF0028BF
:10269C0000D179E7FA210D9805AA8900FFF7FAFE17
:1026AC00002800D170E7FA210E9806AA8900FFF7DE
:1026BC00F1FE002800D167E754490F9807AAFFF7ED
:1026CC00E9FE002800D15FE7079B032B00D95BE7ED
:1026DC0008223A70039ABC81BA60049ABB82FA81D0
:1026EC00059A3A82069A7A824FE7082548480136BD
:1026FC00805C28426BD0002972D1203112AAD154AF
:10270C001F3923003278002A71D05C1C4F2BECD17E
:10271C004F22531E12A9C95C202900D0130000229D
:10272C0012ACE3181A7020003A49FEF76FF8012337
:10273C00002845D020003849FEF768F8022300280D
:10274C003ED020003549FEF761F80323002837D02E
:10275C0020003349FEF75AF80623002830D0200019
:10276C003049FEF753F80723002829D020002E49C2
:10277C00FEF74CF80923002822D0042220002B4914
:10278C00FEF70AF8002807D13A1DB91C13A8FFF769
:10279C0053FE0423002813D1072220002449FDF7FF
:1027AC00FBFF002809D102AB4730C0183A1DB91CF9
:1027BC00FFF742FE0523002802D12378002B00D11D
:1027CC003B7038780A38431E9841C0B2DDE661464A
:1027DC000840022800D1203A12A9CA54002190E7DF
:1027EC001C008EE703220121230094468AE7002B6C
:1027FC0095D01A008DE7C046DC050000F97700087B
:10280C00D5750008017800083E750008FFFF000030
:10281C0095730008067800080D78000814780008F5
:10282C0019780008837500081E78000823780008C2
:10283C0028780008F0B5041E2DD0081E2BD0101ED1
:10284C0029D023780020082B25D10C23E65EFA230F
:10285C00FA259B00F3189BB2ED00AB421BD8FA276C
:10286C00E589BF00BD4216D8238ABB4213D8648ABF
:10287C00BC4210D8854201D083420CD1F00F801994
:10288C000A4E4010801900B2002C05D06408A31920
:10289C00088001201380F0BD002B03D0034C5B0893
:1028AC001B19F5E7014B6D085B1BF1E7DC0500001C
:1028BC0070B505000C0000280ED000290AD0013C90
:1028CC00642C00D96424220028000449FEF762F825
:1028DC0000232B55200070BD0400FBE78478000812
:1028EC00002210B5034B1A80034B1A8000F08AF9B2
:1028FC0010BDC046BA030020B8030020704700008A
:10290C00A722044B9200985C033843425841C0B252
:10291C007047C046BC050020F0B50A4A0A4C0B4D66
:10292C004118884200D1F0BD138826880133DB059D
:10293C00DB0D9E42F7D016880778B6B2AF55013042
:10294C001380EEE7BA030020B8030020BC0300207C
:10295C00F7B51F4A019113889BB2002801D10020C2
:10296C00FEBD01990129FAD900241A4D1A4E2F885F
:10297C009F42F4D0F75C0133BC466146DB05FFB2E5
:10298C00DB0D0A2901D00D2F03D1002C1CD1138093
:10299C00EDE7611C8C4601998C45E8D207556446DD
:1029AC00E5E713889BB2F35CD9B20A2B01D00D2951
:1029BC0008D113880133DB05DB0D138011882B88BC
:1029CC009942EED10120CBE700210155F5E7C04635
:1029DC00B8030020BA030020BC030020A72210B5C6
:1029EC00084B92009A5C0023032A08D1984206D027
:1029FC00994204D000F058F943425841C3B2180030
:102A0C0010BDC046BC05002010B5041E0BD0FDF750
:102A1C005BFC054B421E010000209A4203D82000AB
:102A2C0089B2FFF7DBFF10BDFEFF000007B50121E7
:102A3C000B4B02201A6C40420A431A641A6C0A406F
:102A4C0080210092009ADA6B49050A43DA63DB6B4A
:102A5C0000220B4001930321019B00F017FB07BDE3
:102A6C000010024030B580230025026889B006951D
:102A7C00DB059A4222D10124114BA020DA6B03A969
:102A8C002243DA63DA6BC00522400192019A5A6B39
:102A9C0022435A635B6B059423400293029B0723EA
:102AAC000393053B0493079300F0FEFF0F202A00CD
:102ABC00210000F0EBFA0F2000F012FB09B030BD42
:102ACC0000100240074B026882B09A4208D10221E2
:102ADC00054BDA6B0A43DA63DB6B0B400193019B0A
:102AEC0002B07047000400400010024010B5040012
:102AFC0086B00822002103A8FDF716FD0B4B2268B7
:102B0C009A4211D102230A4A0A48516B1943516364
:102B1C00526B01A91A400092009A30220293013B99
:102B2C000192059300F0C0FF06B010BD00040040F8
:102B3C00001002400004005010B5040088B00C22B4
:102B4C00002105A8FDF7F0FC104B22689A421AD11F
:102B5C0080210F4B49031A6CA0200A431A641A6C8B
:102B6C00C0050A4001210192019A5A6B0A435A632B
:102B7C005B6B0B400293029B102303A903930D3B49
:102B8C00049300F091FF08B010BDC0460024014032
:102B9C000010024007B50B4B02689A4211D18021FC
:102BAC00094B8901DA6B08200A43DA630022DB6BDC
:102BBC000B4001931100019B00F068FA082000F013
:102BCC008FFA07BD005C004000100240704710B542
:102BDC00FFF77EF910BD7047704710B500F032FA60
:102BEC0010BD000010B5024801F094F910BDC046AC
:102BFC006C03002010B5024802F03CFB10BDC0462F
:102C0C00180D002010B50E4C002220000D4903F0C9
:102C1C00C5FC002802D0FFF75BF910BD20000A4963
:102C2C0003F0D7FC0028F6D12000084904F011FB72
:102C3C000028F0D1200003F0E7FC0028EBD1ECE7F2
:102C4C00BC05002068000020E40000205400002097
:102C5C0000207047002070470020704710B50968AD
:102C6C00FFF75AFE044C0549200004F010FB20002D
:102C7C0004F039FB002010BDBC050020D808002052
:102C8C0010B5064C00222000054904F0EFFA200094
:102C9C00044904F0FCFA002010BDC046BC0500201D
:102CAC0098080020D80800200A00AF2110B50A4C63
:102CBC00890061580300012000290CD08520800078
:102CCC0009580120002906D11900200004F0CEFA81
:102CDC00200004F0EAFA10BDBC050020802210B5DB
:102CEC00D2000024904204D8034C00212000FDF7B0
:102CFC001BFC200010BDC046180900207047A723FC
:102D0C0010B59B00C1184033C05803F097FC10BDA0
:102D1C0028234B43C318FC33DA6EB72310B59B0042
:102D2C00C05803F0BBFC10BD28234B43C3189A6A50
:102D3C00B72310B59B00C05803F0F2FC10BDB723AD
:102D4C0010B59B00C05803F09DFD10BD70B5B725A4
:102D5C000400AD000121405903F072FD605903F0ED
:102D6C003CFD70BDB72310B59B00C05803F06CFD43
:102D7C0010BDB72310B59B00C05803F075FD10BDF6
:102D8C0070B51C4B1C4C236008232371063BE3716C
:102D9C00637200236381A381B7239B00E050143B33
:102DAC00C450200002F0F2F9051E21D102000100EE
:102DBC004023200002F0B9FF80232A0019002000D4
:102DCC0002F0B3FFC0232A000121200002F0ADFF66
:102DDC0080232A0081215B00200002F0A6FFA023A3
:102DEC002A00822120005B0002F09FFF280070BDAA
:102DFC000325FBE7005C0040180D002010B50348CC
:102E0C0002F014FA002800D0032010BD180D002089
:102E1C0010B5140004481A00230002F09BFE002891
:102E2C0000D0032010BDC046180D002010B503487B
:102E3C0002F0BEFE002800D0032010BD180D0020AB
:102E4C0010B5034802F015FF002800D0032010BD78
:102E5C00180D002010B5034802F039FF002800D0EF
:102E6C00032010BD180D00204AB2084B002A06DAC8
:102E7C007F221140573A4A439B18987D704728226D
:102E8C004A439B185733FF331878F7E7180D002087
:102E9C0010B5034802F0DDF9002800D0032010BD66
:102EAC00180D002010B5034802F0CBFE002800D00E
:102EBC00032010BD180D002010B5034802F09EFE33
:102ECC00002800D0032010BD180D002010B50248BA
:102EDC0002F0AFFE10BDC046180D002012230148B1
:102EEC000B80704788000020042301480B8070473A
:102EFC008400002070B5002652008A18050FECB231
:102F0C0023003733092D00D8073B0B704E7002316C
:102F1C0000019142F2D170BD10B5044C0A002100A1
:102F2C00034803F043FF200010BDC04612100020E0
:102F3C003078000810B5044C0A002100034803F057
:102F4C0035FF200010BDC046121000204678000846
:102F5C0010B5044C0A002100034803F027FF2000A1
:102F6C0010BDC046121000205878000810B5044C53
:102F7C000A002100034803F019FF200010BDC046D1
:102F8C00121000206E780008F7B50E0000F06CF8F7
:102F9C00050000F06FF8019000F072F81A27032377
:102FAC00074C28180822074927706370FFF7A2FF07
:102FBC00019804220449FFF79DFF37802000FEBDD5
:102FCC00F80F0020FA0F00200A10002070B5104BEB
:102FDC0005001978002901D1012070BDFA2080006C
:102FEC00FDF784F80B4C01002068FDF77FF800F02A
:102FFC0083F8041EF0D1032DEED802000120290025
:10300C00404200F043F8044B20001D60E5E7C04649
:10301C009A000020280100209C0000208023084AF0
:10302C005B00116810B50B4303201360FFF7CEFF54
:10303C00041E03D1FFF7FAFC200010BD0124FBE7AE
:10304C0000200240034A044B11681B785B18136084
:10305C007047C046141200209A000020014B1868DB
:10306C007047C04614120020014B18687047C046C8
:10307C009075FF1F014B18687047C0469475FF1F71
:10308C00014B18687047C0469875FF1F10B5FF2498
:10309C0003220B0021000240D20091409B012340EF
:1030AC00C943934000280ADBC0240B4A80088000E7
:1030BC008018A40002590A401343035110BD0F227B
:1030CC0010400838054A800880008018C2691140F9
:1030DC001943C161F2E7C04600E100E000ED00E0F9
:1030EC00002805DB1F2318401E3B8340014A136058
:1030FC007047C04600E100E08022431E52040120CC
:10310C0093420DD2C021074A07485360036A09064F
:10311C001B021B0A0B430362002007239060136001
:10312C007047C04610E000E000ED00E0F0B5040090
:10313C0085B0002802D1012005B0F0BD0368DB0783
:10314C0014D423689B0760D423681B0700D5C5E003
:10315C0023685B0700D5F6E023689B0600D564E185
:10316C00236A002B00D0A5E10020E5E73822C44DEE
:10317C00AB681340EA68102B09D1D3439B0708D1E5
:10318C002B689B03DDD56368002BDAD1D3E7082BC2
:10319C00F6D0802263685202934211D12A681343FD
:1031AC002B60FFF75BFF80270600BF022B683B42BA
:1031BC00C7D1FFF753FF801B6428F7D90320BBE767
:1031CC00A021C9028B4208D180232968DB020B4362
:1031DC002B602B681A432A60E3E72A68A9490A4046
:1031EC002A602A68A8490A402A60002BD9D1FFF727
:1031FC0035FF80270600BF022B683B42A1D0FFF7AA
:10320C002DFF801B6428F7D9D8E738229C4DAB687A
:10321C001340EA68102B28D103210A40022A26D138
:10322C002A68520503D5E268002A00D183E7696851
:10323C0062699648120201400A436A60002B0CD165
:10324C002B68934A93491340226913432B602B68D4
:10325C00914A9B045B0FDA400A60904B1868FFF7A9
:10326C00B5FE002800D16FE765E7002BD8D0E368E6
:10327C00002B20D02B68864A802713402269FF0040
:10328C0013432B6080232A685B0013432B60FFF7EA
:10329C00E5FE06002B683B4207D06A6863697B49F0
:1032AC001B020A4013436B604EE7FFF7D7FE801BEF
:1032BC000228EFD982E72B68794A802713402B60CC
:1032CC00FFF7CCFE0600FF002B683B4200D13BE72A
:1032DC00FFF7C4FE801B0228F6D96FE73822684D31
:1032EC00AB681340182B08D12B6E9B0700D42FE72B
:1032FC00A369002B00D02BE71DE7A2690123002A4C
:10330C0010D02A6E022713432B66FFF7A7FE060088
:10331C002B6E3B4200D01BE7FFF7A0FE801B022860
:10332C00F6D94BE72A6E02279A432A66FFF796FED8
:10333C0006002B6E3B4200D10AE7FFF78FFE801B85
:10334C000228F6D93AE738224D4DAB681340202BB2
:10335C0008D1EB6D9B0700D4FEE6A368002B00D0D0
:10336C00FAE6E8E680220021EB6B5205009113424D
:10337C0008D1EB6B1343EB63EB6B13400393039B91
:10338C00012300938027474E7F0033683B4215D0C2
:10339C00A368012B22D1EA6D1343EB65FFF75EFEA8
:1033AC0002270600EB6D3B4238D0009B012B00D06E
:1033BC00D2E6EB6B3C4A1340EB63CDE633683B4300
:1033CC003360FFF74BFE019033683B42E0D1FFF7CF
:1033DC0045FE019BC01A0228F6D9EFE6EA6D052BD3
:1033EC0005D1013B1343EB65EA6D0123D4E70121C1
:1033FC008A43EA65EA6D03318A43EA65002BCDD135
:10340C00FFF72CFE02270600EB6D3B42CDD0FFF7F9
:10341C0025FE264B801B9842F6D9CFE6FFF71EFE01
:10342C00224B801B9842BDD9C8E6E369144D002B92
:10343C0013D080232A68DB0313432B60FFF70EFEA7
:10344C00802706003F042B683B4200D088E6FFF73C
:10345C0005FE801B0228F6D9B0E62B68144A80279B
:10346C0013402B60FFF7FAFD06003F042B683B422C
:10347C0000D175E6FFF7F2FD801B0228F6D99DE618
:10348C0000100240FFFFFEFFFFFFFBFFFF80FFFF6E
:10349C00FFC7FFFF280100200024F4009C0000203F
:1034AC00FFFEFFFF00700040FFFFFFEF88130000DE
:1034BC00FFFFBFFF3821434DAA680A40102A53D0A2
:1034CC00414A022B3AD12B68802713402B60FFF71F
:1034DC00C5FD0600BF042B683B4229D1A16A636A73
:1034EC00EA680B43394980260A401343226BB60421
:1034FC001343626B1343A26B1343E26A120213432E
:10350C00EB6080232A685B0413432B608023EA68FA
:10351C005B051343EB60FFF7A1FD04002B683342FE
:10352C0000D021E6FFF79AFD001B0228F6D945E6EC
:10353C00FFF794FD801B0228CDD93FE62B6880262F
:10354C0013402B60FFF78AFD0400B6042B6833424E
:10355C0004D1EB681E4A1340EB6005E6FFF77EFDD5
:10356C00001B0228F2D929E6012B00D1E3E5032246
:10357C00E868616A02408A4200D0DCE57022A16AE8
:10358C0002408A4200D0D6E5FE21E26AC901014020
:10359C001202914200D0CEE5F822216B9203024038
:1035AC008A4200D0C7E5E022616B120502408A42D4
:1035BC0000D0C0E5A36B400F4007C01A431E9841D2
:1035CC00C0B2B9E500100240FFFFFFFE8C80C111B4
:1035DC00FCFFFEEE382370B51D4CA2681A4205D1D3
:1035EC0023681C489B045B0FD84070BDA2681A402E
:1035FC00082A27D0A2681A40102A17D1E368E1687C
:10360C00DB43E5684906490F6F322D0A013115403D
:10361C009B0709D11048FCF769FDE1686843490F25
:10362C000131FCF763FDE0E70A48F4E7A2681A40B1
:10363C00202A09D0A26800201340182BD5D1FA20DB
:10364C00C001D2E70448D0E780200002CDE7C04695
:10365C00001002400024F40000127A00F7B50400B8
:10366C000D00002801D10120FEBD0727484E33680C
:10367C003B408B422AD3226893073BD4D20748D4D1
:10368C00072733683B40AB420AD93368BB432B4313
:10369C003360FFF7E3FC019033683B40AB4268D1E9
:1036AC0023683C4D5B076CD4FFF794FFAB683A4939
:1036BC001B051B0F9B005B581F210B40D840374A42
:1036CC00374B10601868FFF781FCCDE73368BB43BC
:1036DC000B433360FFF7C2FC019033683B40AB42B5
:1036EC00C9D0FFF7BBFC019BC01A2E4B9842F4D9F2
:1036FC000320B9E72749530704D5E0238868DB0189
:10370C0003438B608B6828480340A06803438B609D
:10371C00B4E760681F4F032829D8FCF7D3FC2002BC
:10372C001C243B689B039ED50722BB689343034331
:10373C00BB60FFF793FC01903823BA681A406368AA
:10374C00DB009A429CD0FFF789FC019BC01A154BF9
:10375C009842F1D9CCE73B689B01E5D483E73B6801
:10376C005B05E1D47FE73B6E9B07DDD47BE7FB6D0C
:10377C00FAE7FFF773FC019BC01A0A4B98428BD9EE
:10378C00B6E7AB68094A1340E2681343AB608BE7BA
:10379C000020024000100240EC78000828010020B4
:1037AC009C00002088130000FFF0FFFFFF8FFFFF3D
:1037BC00F0B50368040085B000209B0352D580222D
:1037CC00974D5205EB6B0090134208D1EB6B1343F2
:1037DC00EB63EB6B13400393039B01230093802754
:1037EC00904E7F0033683B433360FFF737FC01900A
:1037FC0033683B4228D0EA6DC02310009B00216C3B
:10380C00894E18401A4218D0884216D08022EB6D8F
:10381C00E86D190052020243EA65EA6D83483140B3
:10382C000240EA65E965DB0707D5FFF717FC0700DF
:10383C000222EB6D134200D1E9E0EB6D226C3340B8
:10384C0013430020EB6506E0FFF708FC019BC01A50
:10385C000228CDD90320009B012B03D1EB6B744ABA
:10386C001340EB632368DA0706D503256C494A6DD0
:10387C00AA4365682A434A659A0706D50C25684908
:10388C004A6DAA43A5682A434A655A0706D53025CE
:10389C0063494A6DAA43E5682A434A65DA0606D5A8
:1038AC005F49644D4A6D2A4025692A434A65DA040A
:1038BC0006D55B495C4D4A6D2A4065692A434A65C9
:1038CC009A0506D556495C4D4A6D2A40A56A2A438D
:1038DC004A655A0506D55249584D4A6D2A40E56A43
:1038EC002A434A659A0606D54D49554D4A6D2A40DC
:1038FC00A5692A434A655A0606D54949514D4A6D70
:10390C002A40E5692A434A655A040FD54449256B78
:10391C004A6D920092082A434A658022D20595424C
:10392C0004D18022CD6852022A43CA601A0306D5FC
:10393C0040253B494A6DAA43656B2A434A659A0266
:10394C000FD53749404E4A6DA56B32402A434A6524
:10395C008022D203954204D18022CD6852042A439E
:10396C00CA605A020DD52E4D384E696DE26B31404E
:10397C0011436965802149048A4202D1E9680A43EE
:10398C00EA601A050DD503262549256A8A6DB243CE
:10399C002A438A65012D04D18022CD6852022A4324
:1039AC00CA609A040DD50C261D49656A8A6DB2430E
:1039BC002A438A65042D04D18022CD6852022A4301
:1039CC00CA6080256D042B420DD015491C4F8A6DA1
:1039DC00666C3A4032438A6580229201964202D14B
:1039EC00CA681543CD609B010FD50D4AA16C936D30
:1039FC000D4C23400B43936580235B00994204D10B
:103A0C008023D1685B040B43D36005B0F0BDFFF796
:103A1C0025FB0F4BC01B984200D809E71AE7C0469C
:103A2C000010024000700040FFFCFFFFFFFFFEFF94
:103A3C00FFFFFFEFFFF3FFFFFFFFF3FFFFFFCFFFE2
:103A4C00FFCFFFFFFF3FFFFFFFFFBFFFFFFFFFFEAB
:103A5C00881300008022104B5202D96A0A43DA62A2
:103A6C00DA6A0E490A40DA624268036813438268D4
:103A7C001343C2681343026912041A43084B5A6079
:103A8C00196842690748120201400A431A60602211
:103A9C0019680A431A60704700100240FFFFFEFFCE
:103AAC00006C0040FF80FFFF0023F0B585B00A6872
:103ABC001400DC4001D105B0F0BD012514009D407F
:103ACC002C4000942A4200D195E04A685F0094464D
:103ADC000322644622400324BC40E4430194541E58
:103AEC00012C2ED88668019C2640CC68BC403443FF
:103AFC00846044680126AC432500644624093440A4
:103B0C009C402C434460C568019C25408C68BC409B
:103B1C002C43C460022A16D107250F261D40AD0088
:103B2C00AE40DC08A40004190294246A0396260013
:103B3C00039CA64334000E69AE402643029C2662C9
:103B4C0001E0032ADFD1BA400468019D25402A43D5
:103B5C00C02402606246A40222424CD0274A0325AC
:103B6C009C08A400A4180F221D40ED00AA40A02719
:103B7C00266EFF0596430022B84210D0204F01322A
:103B8C00B8420CD01F4F0132B84208D01E4F013240
:103B9C00B84204D01D4A8218571EBA410432AA40BA
:103BAC00674632432266154C009A2668009DD24324
:103BBC003543FF0201D43500154067462560666821
:103BCC00009D3543BF0201D4350015406746656042
:103BDC000F4C009DE66F3543BF0301D435001540F3
:103BEC006746E5670B4C009EE56F2E43FF0301D43F
:103BFC0015402E00E667013359E7C0460018024015
:103C0C000004005000080050000C005000F0FFAF02
:103C1C00081802400418024000690840431E9841ED
:103C2C00C0B27047002A01D0816170478162FCE705
:103C3C0070B50124036A026AA2430262144C426802
:103C4C00856925400C6825430224A3438C682343D3
:103C5C00104CA04208D0104CA04205D00F4CA042F2
:103C6C0002D00F4CA0420DD10426046AB443046266
:103C7C000824A343CC688E6923430A4C14404A6938
:103C8C003243224342604A6885614263036270BDDD
:103C9C008CFFFEFF002C014000400140004401401D
:103CAC0000480140FFFCFFFF70B51A4A056A036A21
:103CBC00134003624268184BC4691C400B681C43D8
:103CCC00164B1D408B681B022B43154DA8420AD086
:103CDC00144DA84211D1144D8E6915404A693243D6
:103CEC0012012A430FE0056A104E35400562104D53
:103CFC001D40CB681B022B43EDE70E4DA842EAD0CA
:103D0C000D4DA842E7D042604A68C461C2630362A9
:103D1C0070BDC046FFFEFFFF8CFFFEFFFFFDFFFFE7
:103D2C00002C014000400140FFCFFFFFFFFBFFFFD5
:103D3C00FFF7FFFF004401400048014030B5144A32
:103D4C00046A036A134D134003624368C2692A4034
:103D5C000D682D021543104A14408A681203224341
:103D6C000E4CA04208D00E4CA04205D00D4CA042E7
:103D7C0002D00D4CA04204D10C4C1C404B699B0151
:103D8C00234343604B68C5610364026230BDC04687
:103D9C00FFEFFFFFFF8CFFFEFFDFFFFF002C01405A
:103DAC00004001400044014000480140FFBFFFFFBC
:103DBC0070B5066A124C036A124A234003624368C8
:103DCC00456D15400A6815430F4A16408A6812045F
:103DDC0032430E4EB04208D00D4EB04205D00D4EBF
:103DEC00B04202D00C4EB04203D11C404B691B02B6
:103DFC00234343604B6845658365026270BDC046D2
:103E0C00FFFFFEFF8FFFFEFFFFFFFDFF002C0140B9
:103E1C0000400140004401400048014030B5144AC4
:103E2C00046A036A134D134003624368426D2A40CF
:103E3C000D682D021543104A14408A68120522435E
:103E4C000E4CA04208D00E4CA04205D00D4CA04206
:103E5C0002D00D4CA04204D10C4C1C404B699B026F
:103E6C00234343604B684565C365026230BDC04661
:103E7C00FFFFEFFFFF8FFFFEFFFFDFFF002C014076
:103E8C00004001400044014000480140FFFFFBFF9F
:103E9C0070B51026056A046AB44304620C4CA04247
:103EAC0003D1046A3036B44304628669094C0901B3
:103EBC0026401402084A344314401A07A0239D4399
:103ECC001940120C294322438261016270BDC04625
:103EDC00002C0140FFFCFFFFFF0FFFFF082911D052
:103EEC0005D8002908D0042909D0002070470C29D6
:103EFC00FBD10368186CF9E70368586BF6E70368A5
:103F0C00986BF3E70368D86BF0E77047704770471E
:103F1C00704700000222036870B5DD681E6904005A
:103F2C0016420DD015420BD0053A1A6104320277B5
:103F3C009B699B0700D17CE0FDF76EFE0023237785
:103F4C0004231E4212D01D4210D005222368524277
:103F5C001A61073222779A69C0239B0020001A420B
:103F6C0000D16CE0FDF758FE0023237708231E4296
:103F7C000FD01D420DD00922236852421A610D3216
:103F8C002277DB6920009B075FD0FDF745FE0023FD
:103F9C00237710231E4211D01D420FD0112223680B
:103FAC0052421A6119322277DA69C0239B00200031
:103FBC001A4250D0FDF730FE0023237701231E4216
:103FCC0008D01D4206D002222368524220001A61FA
:103FDC00FFF79BFF82239B011E4207D02B0605D5C2
:103FEC002368204A20001A6100F003FCF30507D572
:103FFC002B0605D523681C4A20001A6100F0FAFB39
:10400C0040231E4208D01D4206D041222368524252
:10401C0020001A61FFF77CFF20231E4208D01D42AE
:10402C0006D021222368524220001A6100F0E0FBE6
:10403C0070BDFFF76BFF2000FFF769FF7EE7FFF70E
:10404C0065FF2000FFF763FF8EE7FFF75FFF20009F
:10405C00FFF75DFF9BE7FFF759FF2000FFF757FFC6
:10406C00AAE7C0467FDFFFFFFFFEFFFF10B5214C24
:10407C000368A04209D08022D205904205D01E4A86
:10408C00904202D01D4A904208D1702293434A6854
:10409C0013431B4A1A40CB6813430BE0194A904256
:1040AC00F7D0194A9042F4D0184A9042F1D0184AED
:1040BC009042EED0802293434A6913438A68C262CD
:1040CC000A688262A04208D00F4A904205D00F4A7B
:1040DC00904202D00E4A904201D10A690263042236
:1040EC0001680A43026001224261BFF34F8F0360F3
:1040FC0010BDC046002C01400004004000080040E8
:10410C00FFFCFFFF00200040004001400044014044
:10411C000048014070B504000120002C23D025007C
:10412C003D352B78DAB2002B05D123003C3320002F
:10413C001A70FEF7C7FC02232B702068211DFFF7B5
:10414C0095FF2200012300204832137047340A3AAD
:10415C00137053709370D370137153719371D37137
:10416C00137223702B7070BD70B504000120002CED
:10417C0023D025003D352B78DAB2002B05D1230056
:10418C003C3320001A70FEF76DFC02232B70206864
:10419C00211DFFF76BFF2200012300204832137012
:1041AC0047340A3A137053709370D3701371537170
:1041BC009371D371137223702B7070BD102270B574
:1041CC00056A036A184C934303624268836923406F
:1041DC000C6824021C4320239D438B681B012B433A
:1041EC00124DA8420AD0124DA84211D1114D8E6920
:1041FC0015404A69324392002A430FE04026056A73
:10420C00B54305628025AB43CD682D012B43EDE70B
:10421C00094DA842EAD0094DA842E7D042604A684D
:10422C0084618263036270BDFF8CFFFE002C014031
:10423C0000400140FFF3FFFF0044014000480140F3
:10424C00F8B507003C3715003A7803000C00022043
:10425C00012A0CD0013838700C2D51D008D8042DFF
:10426C002DD0082D3CD0002D17D000233B70F8BD6D
:10427C00102D58D0142DF8D11D682800FFF7CEFD55
:10428C0080236A6D1B0113436B656B6D2E4A1340C3
:10429C006B6523696A6D1B0253E01D682800FFF7EC
:1042AC00C7FC0823AA6913430422AB61AB6993438F
:1042BC00AB61AB6922691343AB610020D5E71D6884
:1042CC002800FFF77BFF8023AA691B011343AB6116
:1042DC00AB691D4A1340AB612369AA691B02EAE76B
:1042EC001E683000FFF7E0FC0422F3691D43F56102
:1042FC00F3699343F361F36922691343F361DCE7D8
:10430C001D682800FFF71AFD8023EA691B0113437F
:10431C00EB61EB690C4A1340EB612369EA691B0200
:10432C001343EB61C9E71D682800FFF741FD082323
:10433C006A6D134304226B656B6D93436B656B6DF8
:10434C00226913436B65B8E7FFFBFFFFF0B501264D
:10435C00056A046AB443194E0462B04210D0184C7A
:10436C00A0420DD0174CA0420AD0174CA04207D047
:10437C0080268469F605B0420BD10326B4430FE0C6
:10438C000427046ABC4304628469B042F5D00C4E25
:10439C0003E00E4EB042F0D00D4EB042EDD00122F3
:1043AC001443F0221B0194430F321340F53A95430A
:1043BC0011402943234383610162F0BD002C01406D
:1043CC00004001400044014000480140000400400E
:1043DC00000800400300F7B53C3301900C0019783D
:1043EC00022001290CD001381870082A52D008D8A4
:1043FC00002A2DD0042A3DD00023019D3C352B7082
:10440C00FEBD0C2AF8D1019B394D1B6822681E6A2F
:10441C001F6A60682F40E1681F62DF69354D00023A
:10442C002F403843344F09073840090C01433348B7
:10443C0012030640A020000202403243D9611A62E6
:10444C00DA692F490A40DA61A268D96912024BE095
:10445C00019B62681E682168E3683000FFF776FFF5
:10446C000C22B3699343B361B369A2681343B3617C
:10447C000020C1E7019B62681E682168E368300078
:10448C00FFF706FDB3691E4A1340B361A368B26916
:10449C001B02EBE7019B1B4D1B6822681E6A1F6AFF
:1044AC0060682F40E1681F62174FBB4203D11F6A3F
:1044BC00164D2F401F620325DF690901AF433843B6
:1044CC00F027B8430F37394001431148D9613040C8
:1044DC00A0260C2112023601324002431A62DA691C
:1044EC008A43DA61DA69A1680A43DA61C0E7C04637
:1044FC00FFEFFFFFFFFCFFFFFF0FFFFFFF5FFFFF63
:10450C00FFF3FFFFFFFEFFFF002C0140FFFBFFFF4F
:10451C00FFF5FFFF1F2310B5012419408C408A4082
:10452C00036AA3430362036A1A43026210BD0000CC
:10453C00020010B508291CD006D800290BD004297C
:10454C0014D01300433308E00C2915D01029F8D1EE
:10455C000300423301E003003E331B78013B581E3D
:10456C008341DBB20120002B09D010BD03003F3387
:10457C00F3E703004033F0E703004133EDE7022398
:10458C00082936D006D800290BD004292ED01000CB
:10459C00433008E00C292FD01029F8D110004230FC
:1045AC0001E010003E300370146801222000FFF778
:1045BC00B1FF1C4A944208D01B4B9C4205D01B4BAC
:1045CC009C4202D01A4B9C4219D18023616C1B0275
:1045DC000B436364944202D0134B9C421CD1A368DE
:1045EC00144A1340062B13D10020BEE710003F30B5
:1045FC00D9E710004030D6E710004130D3E78023D4
:10460C00DB059C42EBD00C4B9C42E8D00B4BE4E717
:10461C00802252029342E7D0012322681343236085
:10462C00E2E7C046002C014000400140004401403C
:10463C000048014007000100000400400008004051
:10464C0010B5FFF775FF10BD10B508292FD006D88F
:10465C0000290BD0042923D00300433330E00C296C
:10466C002CD01029F8D10300423329E003000200BA
:10467C003E331B784432DBB21278D2B2012B2DD1EF
:10468C00012A2BD1013308295ED01ED8002927D04E
:10469C00042950D0020047304332137003701DE0E0
:1046AC00030002003F331B784532DBB2E4E7030022
:1046BC00020040331B784632DBB2DDE703004133A6
:1046CC0002001B784732DBB2D6E7020047320C29D6
:1046DC003DD01029DED1423003701370012029E047
:1046EC0002003E32137093710468E2681343E36076
:1046FC00046801222000FFF70DFF194B9C420CD0DF
:10470C008023DB059C4208D0164B9C4205D0164BEF
:10471C009C4202D0154B9C4207D1A368144A13400B
:10472C00062B06D0073A934203D001232268134389
:10473C002360002010BD02003F3213709371026899
:10474C00D3680B43D360D3E702004032F5E7040093
:10475C0041342370137010230268D4682343F1E7AB
:10476C00002C0140000400400008004000400140C3
:10477C0007000100F0B5040002223C342578030048
:10478C001000012D29D01D003D352A701B68134ED9
:10479C005A689868B34203D1114F3A404F683A4374
:1047AC007027BA430F683A435A60B3420CD0802248
:1047BC00D205934208D00B4A934205D00A4A934241
:1047CC0002D00A4A934204D1802290438A68104353
:1047DC009860012300202B702070F0BD002C01404C
:1047EC00FFFF0FFF000400400008004000400140A4
:1047FC0070477047704780684007C00F70470000D3
:10480C000023F0B585B004000393984200D1F0E08A
:10481C00856D9D4205D1FEF78FF923005433E56574
:10482C001D70802325685B05AA681A4200D1A7E099
:10483C000022AB680192DB0008D410230126A26D84
:10484C0001961343A365E36D3343E3652800FFF73B
:10485C00D2FF1022A36D1340034300D0CCE0A26D15
:10486C00674B20691A400633FF331343A365AB68CB
:10487C00DB0761D4276BE1687B1E9F41A368A27E96
:10488C000B43217E3F0389030B43617EC9030B431A
:10489C0051030B439C46002800DB86E0410049088D
:1048AC00230066462C331B785B0033433B430B439E
:1048BC00611CC97F012905D1002A00D078E0802233
:1048CC0052021343626A002A05D0E02149000A40D3
:1048DC00A16A0A431343EA684A490A401343EB604E
:1048EC00230062683C33E16C1B78970FBF079C4632
:1048FC003943012B08D1236C666C33430B43A16CF9
:10490C000B4361463B4319432B693F4F3B400B43E1
:10491C0080212B6153005B08C9058B420CD080238E
:10492C001B069A4208D03949394F0B683B40F02797
:10493C00BF033A4013430B60072170276B69626B0E
:10494C008B4313436B616969A36BB9431B010B4325
:10495C006B61002834D11023A96A5B420B43AB6214
:10496C0007216B690B409A4239D10023E365A26D94
:10497C0003339A43023B1343A365019805B0F0BD82
:10498C00AA6824490A401343AB60234B2349186897
:10499C00FBF7ACFB013040000390039B002B00D1D4
:1049AC0046E7039B013B0393F7E78021890377E7F5
:1049BC002022A76D3A43A265E26D1143E16581E7C0
:1049CC0080239B039842CBD11C21AB6AE369013B4A
:1049DC009B000B402C3999400B00216EBEE7122333
:1049EC00A26D9A43023B1343A3650123E26D13436B
:1049FC00E36501230193C0E7A36D1A43A265F8E7B1
:104A0C00FDFEFFFF0102DEFF02FCFF1F0827014035
:104A1C00FFFFC3FFE8FFFF6F28010020400D0300DC
:104A2C00F7B5466904000F00082E0AD00368012070
:104A3C00DB680426034204D02023A26D1343A36534
:104A4C00FEBDFEF70BFB019025682B681E4224D09F
:104A5C008023A26D9B001343A365C023EA681B014E
:104A6C001A4215D1A37E002B12D12B681B070FD530
:104A7C002800FFF7C0FE002827D10C226B68934357
:104A8C006B60A26D174B1A400433FF331343A365BD
:104A9C00237E002B22D00020D2E77B1CD5D0FEF742
:104AAC00DDFA019BC01AB84201D8002FCCD13200DC
:104ABC0023681B681A401E42C6D10423A16D5434CE
:104ACC000B43636003202270BAE72023A26D1343CB
:104ADC00A3650123E26D1343E365D9E70C232B6037
:104AEC00D9E7C046FEFEFFFF0368186C7047000054
:104AFC000023F0B585B003930300009154331A786A
:104B0C0004000220012A4DD0012227691A70256861
:104B1C002800FFF770FE002800D0F7E0009B04226D
:104B2C005B6880219C4697436246009B09061B6884
:104B3C00022A00D1BEE05A03520B8F4234D1A96A2B
:104B4C000A43AA62009A686992681902724E0A4076
:104B5C003240884302436A61002B1FDAE0216F4A1E
:104B6C006F48156849042940834200D08CE08020AE
:104B7C000004054212D113686A4D2B400B431843B5
:104B8C00694B106018686949FBF7B0FA431C0C209C
:104B9C0058430390039B002B00D071E000200023AE
:104BAC005434237005B0F0BD1F2167460F401039F7
:104BBC00B940CE430196266E8E433100002A12D1A5
:104BCC00980E1F321040B840624608439208E169C3
:104BDC00013220668A42B5D8A96A01989A00120F50
:104BEC00BA400140ACE701221342ECD192181342B7
:104BFC0024D10426334223D11A0723D4DA0623D432
:104C0C009A0623D45A0623D41A0623D4DA0523D4BD
:104C1C009A0523D45A0523D41A0523D4DA0423D4B1
:104C2C009A0423D45A0423D41A0423D4DA0323D4A5
:104C3C009A0323D45A03C6D51220C4E70120C2E735
:104C4C001000C0E70320BEE70420BCE70520BAE74C
:104C5C000620B8E70720B6E70820B4E70920B2E73A
:104C6C000A20B0E70B20AEE70C20ACE70D20AAE73A
:104C7C000E20A8E70F20A6E71020A4E71120A2E73A
:104C8C00039B013B039385E7294883420BD180208A
:104C9C004004054200D081E71368224D2B400B43A2
:104CAC00184310607AE72348834200D076E78020CF
:104CBC00C003EEE78F4204D1AA6A5903490B8A4319
:104CCC00AA62002B00DB69E7144A1548116883427D
:104CDC0008D1A02310685B040B40124901400B4320
:104CEC0013605BE71248834203D1C02310681B0496
:104CFC00F2E71048834200D050E7C020400413680C
:104D0C000140084803401943116047E72023A26D76
:104D1C0001201343A36542E700FFFF07082701406A
:104D2C00001000B0FFFF3FFE28010020400D0300E3
:104D3C00004000B8002000B470B5056804002800DD
:104D4C00FFF759FD002801D1002070BDAB689B070F
:104D5C0005D4AA680F4B1A4010231343AB60FEF71F
:104D6C007DF90426050023689B683342ECD0FEF7DE
:104D7C0075F9401B0228F6D923689B683342F2D0A0
:104D8C0010230120A26D1343A365E36D0343E36578
:104D9C00DBE7C046E8FFFF7F0023F7B5026801930D
:104DAC00916801330400194201D00020FEBD9068C7
:104DBC002249084208D01022A16D0A43A265E26D77
:104DCC0013430120E365F1E791681D4F39400B4314
:104DDC0093601C4B1B681B0221D4637E012BE4D017
:104DEC00FEF73CF901250600226813682B42DCD142
:104DFC0093682B4203D193683B402B439360FEF79F
:104E0C002DF9801B0228EFD923681B682B42EBD1AC
:104E1C001023A26D1343A365E36D2B43D1E70A4B1B
:104E2C000A491868FBF762F901300190019B002BCD
:104E3C00D3D0019B013B0193F8E7C04617000080DB
:104E4C00E8FFFF7F0827014028010020400D0300E8
:104E5C0070B504000068FFF7CEFC06000220002E9F
:104E6C001DD1250054352B78012B18D0012320009F
:104E7C002B70FFF791FF002812D1A26D094B1A403D
:104E8C0080235B0013431C22A3652368E0651A6032
:104E9C0028709968044A114004220A439A6070BD34
:104EAC002E70FCE7FEF0FFFFE8FFFF7F0122036896
:104EBC0070B5040098689968114201D1002070BD4A
:104ECC0002210842FAD105209D680540012D1ED112
:104EDC009A68134802401143032299601A60FEF746
:104EEC00BDF8060023689B682B42E7D0FEF7B6F8A6
:104EFC00801B0228F6D923689B682B42F2D0102322
:104F0C00A26D1343A365E36D2B43E36506E0102309
:104F1C00A16D0B43A365E36D1A43E2650120CEE757
:104F2C00E8FFFF7F70B5060054363378040002208A
:104F3C00012B12D0012520003570FFF7FDFE002853
:104F4C0009D12000FFF7B2FF002804D1A36D034A5A
:104F5C0013401D43A5650023337070BDFEFEFFFF9B
:104F6C00F0B500230500022285B0029354352B784E
:104F7C0004000092012B3ED001262E70FFF796FF05
:104F8C002368009099680A003240314206D0102301
:104F9C00A26D1343A36500232B702CE08026A06D1B
:104FAC004349360608400631FF310143A165D868F4
:104FBC004049B44608400190D9683F480140082058
:104FCC00D9603E4967469E680E403E439E609E688F
:104FDC00002E13DA029E01360296029F384EB7421B
:104FEC00F5D91223A26D9A43023B1343A365002308
:104FFC002B7001330093009805B0F0BD1E007F2785
:10500C00B436366801383E40013692190028D9D1A1
:10501C0001269868043208403043986080201F694C
:10502C00D208C00587421CD31E007F27B4363068D7
:10503C00B843104330609A680126114002220A439B
:10504C009A60FEF70BF8070023689A6832421ED16B
:10505C00DA6801990A43DA600322A36D9343334360
:10506C0098E718480768F02080033840E0277F0352
:10507C00B842D9D3800C0338864003960398400875
:10508C00039003980028CFD003980138F8E7FDF778
:10509C00E5FFC01B0228D7D923689B683342D3D0C5
:1050AC001023A26D1343A365E36D3343E3659EE7C1
:1050BC00FDFEFFFF03800000FC7FFFFFE8FFFF7F8A
:1050CC00FFF102000827014070B504000120002CFC
:1050DC0016D02368124A07261A60124A1A606268B0
:1050EC005A60A2689A60FDF7B9FF05002368DA6878
:1050FC00324206D11969E26891420DD01A61002042
:10510C0070BDFDF7ABFF401B3128EFD92368DB687E
:10511C003342EBD00320F3E7034A1A60EFE7C046B3
:10512C00CCCC000055550000AAAA00000368024A26
:10513C0000201A607047C046AAAA00000A2382B059
:10514C000193019B002B07D1054BC000C0180068D0
:10515C008001800D02B07047019B013BF0E7C04617
:10516C00009800400A2382B00193019B002B07D1C9
:10517C00054BC000C01840688001800D02B070471C
:10518C00019B013BF0E7C0460098004073B504005A
:10519C000120002C2FD0244D635DDAB2002B05D1F9
:1051AC00A5239B002000E254FDF7F4FC0323635578
:1051BC00206800F0EFFD0023220019000126207961
:1051CC001432984218D10021220008005532FF32C7
:1051DC008B421BD16B46227C1A70E3686168A26813
:1051EC00206800F0DFFD0023637401336355237BDB
:1051FC00012B15D0002076BD137001335670D17081
:10520C00116151619161DBB22832DAE71170013121
:10521C005070D070106150619061C9B22832D7E7DC
:10522C00200000F09AFDE5E79502000070B5A52579
:10523C00AD00435D04000220012B09D0012363550E
:10524C00206800F09FFD206800F0D6FF002060551C
:10525C0070BD70B5A525AD00435D04000220012B87
:10526C0007D0012363552068617400F0BFFF002054
:10527C00605570BDF0B5040089B0006800F0C3FF44
:10528C000422CB4B1B6813426AD0802580232D024D
:10529C001B020540184200D1C5E38022256812028A
:1052AC006B6C13425CD00F226B6C1A40190001928C
:1052BC00082211400691134252D1019A002A00D0C3
:1052CC0090E0102619003140334221D12B68B94AA5
:1052DC00200013408022120213432B60237DB64A18
:1052EC00DB009B181B68A26A9B019B0D2363D318E0
:1052FC00A362FDF719FD637C002BCED0E26A216816
:10530C00002ACAD18020637C0343CB646274C4E757
:10531C002B6880221F0012011740134233D0AA239E
:10532C005B00E05CFFF71EFF22005532FF320300EA
:10533C00A24FD061082815D02A68A14BA1491A4068
:10534C0080235B015340A04A13432B602B680B4016
:10535C005E40802332432A602A683A4013432B6014
:10536C0009B0F0BDA721890028006118D28801F08E
:10537C00EBF88023216820000A683A4013430B6045
:10538C00FDF7BDFC89E71B0400D486E72A688B4B2C
:10539C0026001A40802313432B60AA235B00E05C99
:1053AC00FFF7E0FE5536FF36031EF06109D12B687E
:1053BC00834A1340C02292015A40834B13432B6003
:1053CC006BE77169002900D167E72800F28801F0CA
:1053DC00BBF87369F26939009B1820007361FDF703
:1053EC0097FC5AE7019B9B000593EB181A680492F3
:1053FC006A46128A0392049A120400D47FE0196858
:10540C006E4A2826114080220A431A60019B5E4393
:10541C00A619330032006133FF331B785532FF324B
:10542C00002B0CD11078FFF79DFE071E4FD03300D8
:10543C005B33FF33FC361A88F16E3B0044E0137883
:10544C00029333005833FF331B78022B00D0DAE081
:10545C008023039ADB011A400792039A0298FC36C8
:10546C001A4200D18DE0FFF769FE326F030007008E
:10547C0082420ED2069A3267029A51489200AA18BA
:10548C00116801408020800148404F490143116060
:10549C0002E0121A3267EFD0039A520608D5029A2C
:1054AC004A499200AA181068084049490143116002
:1054BC00002B0CD02821019A514361180A005D324F
:1054CC00FF32FC311288C96E280001F03DF8282209
:1054DC00019951436318FC33586FC0195867186F02
:1054EC00002803D0986E874200D3ABE0019B2000CC
:1054FC005A43A2185532FF321178FDF709FC236884
:10550C000293049B1B0600D4C7E6029A059B9446A3
:10551C0063441A6827490A40802109020A431A6029
:10552C002823019959436618F27D0592012A00D06F
:10553C00BAE0019A013253430022E3185A60731CFB
:10554C00DB7F934214D0049B5B0600D48FE0737D09
:10555C00934200D080E0337D174ADB009B181A6819
:10556C00920192091A608022196812060A431A6085
:10557C002823019A5343E318197D2000FDF7D4FB2F
:10558C008BE6FFF7EFFD326F03000700824221D25A
:10559C00079A3267029A0A489200AA1811680140C9
:1055AC0080208001484008490143116015E0C04645
:1055BC00A00001400F8FFF07009800408F0FFF07DE
:1055CC008FBFFF07BF8FFF07808000008F8FFF0703
:1055DC00C0800000121A3267DCD0039A520608D43D
:1055EC00029AD7499200AA1810680840D54901437D
:1055FC001160002B00D16AE72821019A51436118F0
:10560C000A005F325CE7029BCD499B00EB181868DF
:10561C000840CC490143196010788300EB181B68D3
:10562C005B0407D5FFF78AFD071E00D14FE7330057
:10563C005D33FEE6FFF796FD071E00D147E733000A
:10564C005F33F6E6DA6E5531D219FF312068DA662F
:10565C00611800F009FE52E7012B89D1337DBA4A5B
:10566C00DB009B181A6892B21A601A687FE7737D88
:10567C00002B0DD1337DB44ADB009B185A68920184
:10568C0092095A608022596812060A435A606FE7E1
:10569C00012B00D06CE7337DAB4ADB009B185A68BA
:1056AC0092B25A605A68F1E780230498049A5B001E
:1056BC00357D18401A4219D1A34AEB009B181B6880
:1056CC00F26A9B019B0D9A4202D82900F06254E7C2
:1056DC00D21AF262B26A1431D218B262326B0298E8
:1056EC00D3183363611800F0BFFDD6E54023039F48
:1056FC00039A28001F401A4200D1D2E0FFF71EFD8A
:10570C00F26A0023824200D9131A8022039FD2012D
:10571C00F3621740002B4DD1019A28335343E31801
:10572C005B7D002B36D18021874AEB009B181A68D1
:10573C000906920192091A601A680A431A605A689B
:10574C00920192095A605A6811435960059B022BC9
:10575C000AD1029AAB00D3181A687C490A4020215E
:10576C0051407B4A0A431A6029002000FDF7DCFAFD
:10577C00002F00D191E52823019A5343E3181A7D99
:10578C00236892009B1819686D4A1140714A0A43AC
:10579C001A6082E5012BD9D16B4AEB009B181A6871
:1057AC0092B21A601A681A605A6892B25A605A68B1
:1057BC005A60CBE7002F08D0029AAB00D3181968B7
:1057CC005F4A1140634A0A431A602822019B5A43DC
:1057DC00A218170038373B78012B29D1916A091888
:1057EC009162336B1B183363566B536A9E422ED3F4
:1057FC00F61A5663282201984243A218527D002AB9
:10580C0044D1514AED00AD182A68920192092A60E0
:10581C00002B26D180222868120602432A602822F7
:10582C0001989BB24243A218928B029800F0EEFCB6
:10583C002823019A45495343E3181A7D23689200A3
:10584C009B181A680A4030215140414A9FE7002EAC
:10585C0002D103003E70CDE700233B70536333004D
:10586C00C8E73E2B06D801205A0818401218920699
:10587C002868D2E71F201840464270415A09121A74
:10588C0028689206024380200006C6E7012AC6D18A
:10589C002D4AED00AD182A6892B22A6028681A04C5
:1058AC00BBE7FFF75FFCF26A3B00824200D3131A9E
:1058BC008022039FD201F3621740002B4CD1019A36
:1058CC0028335343E3185B7D002B28D180211E4ADB
:1058DC00EB009B181A680906920192091A601A6863
:1058EC000A431A605A68920192095A605A68114325
:1058FC005960059B022B0AD1029AAB00D3181A6887
:10590C0012490A4020215140114A0A431A602900C9
:10591C002000FDF709FA002F00D0BEE42BE7012B85
:10592C00E7D1094AEB009B181A6892B21A601A6800
:10593C001A605A6892B25A605A685A60D9E7C046DF
:10594C008F8FFF07C080000000980040BF8FFF07BB
:10595C008080000080C00000002F08D1029AAB00AC
:10596C00D3181968704A1140704A0A431A602822E9
:10597C00019B5A43A218170038373B78012B00D0F3
:10598C0056E7916A09189162336B1B183363566B97
:10599C00536A9E421DD3F61A56632822019842433D
:1059AC00A218527D002A33D1614AED00AD186A6805
:1059BC00920192096A60002B15D180226868120648
:1059CC0002436A60282201989BB24243A218D28BF0
:1059DC002BE7002E02D103003E70DEE70023536359
:1059EC003B703300D9E73E2B06D801205A081840EB
:1059FC00121892066868E3E71F201840464270416F
:105A0C005A09121A68689206024380200006D7E7EA
:105A1C00012AD7D1464AED00AD186A6892B26A6085
:105A2C0068681A04CCE743050CD522684149536CCD
:105A3C0020000B405364FDF789F929002000FFF783
:105A4C0008FC8DE4430405D522683B49536C0B409C
:105A5C00536485E4802301009B011940184203D054
:105A6C0022683649536CF2E7C30417D52368186CC7
:105A7C009043186408201A6C82431A64B3239B0069
:105A8C00E25C012A03D12000E15400F079F92000F6
:105A9C00FDF76FF922682A49536CD8E703050FD537
:105AAC0008212368186C01431964596C254801407E
:105ABC005964196C0A431A642000FDF753F94FE43A
:105ACC0003061DD523682048596C0140B320596446
